:060000000A128A11122809
:10000800FE00030EF1000408F2000A08F300831250
:1000180003137F08F4000A128A116C280A128A1145
:10002800042900300A128A11DE200A128A1183126A
:100038000313A3002308AA002A080A128A11A02081
:100048000A128A11831203132108F901F9072008FB
:10005800F801F8070A128A11CC200A128A11781CB2
:1000680036283728682883120313A6015F28023030
:100078000A128A11ED200A128A11831203132A0820
:100088000A128A11ED200A128A1100300A128A1106
:10009800ED200A128A11033083120313A5008A3057
:1000A800A4005630A300A30B5728A40B5728A50B70
:1000B80057285E285F28831203132608031D652826
:1000C8003B2868286828682868280A128A11122894
:1000D800781C6F28702895280C1E7328742875289A
:1000E8000C128C1E7828792895280A128A11F92072
:1000F8000A128A11F0007708273E840070088313DB
:1001080080000130F0007008F7077708033A031DF4
:100118008E288F289028F701831203138C129528B4
:1001280095287408FF0073088A0072088400710E0D
:100138008300FE0E7E0E090083120313A200B0286E
:10014800A001A101B828B828B828A001A101B828A1
:10015800B828B828B828B8282208A03A0319A4282B
:10016800023A0319A928B828080083160313871729
:100178000717990118151812831203139817831675
:1001880003130C1698168C168312031318160800FE
:100198000A128A110E210A128A118B17F701781C8C
:1001A800D628D728DD280A128A11B9200A128A11FE
:1001B800DD28080083120313A00020088312031708
:1001C8008D00831603170C14831203170C08EC28F0
:1001D800080083120313A000F1280C1EF428F52848
:1001E800F128F628200899000800FA28831203133A
:1001F8008C1EFF280029FA2801291A08032908005B
:10020800F501F601F701A701A801A90183010A1266
:0A0218008A111528F601F50108000F
:02400E0032FF7F
:00000001FF
