:040000008A11112828
:10000800FE00030EF1000408F2000A08F300831250
:1000180003137F08F4008A115D288A11EB28003049
:100028008A11D5208A1183120313A3002308AA007A
:100038002A088A118F208A11831203132108F901D3
:10004800F9072008F801F8078A11BB208A11781CE3
:100058002E282F285A2883120313A601512802306C
:100068008A11C9208A11831203132A088A11C92008
:100078008A1100308A11C9208A11033083120313B0
:10008800A5008A30A4005630A300A30B4928A40B6E
:100098004928A50B492850285128831203132608FC
:1000A800031D572833285A285A285A285A288A11AB
:1000B8001128781C6028612884280C1E642865286B
:1000C80066280C128C1E69286A2884288A11E02068
:1000D8008A11F0007708273E840070088313800097
:1000E8000130F0007008F7077708033A031D7D28F0
:1000F8007E287F28F701831203138C128428842812
:100108007408FF0073088A0072088400710E830067
:10011800FE0E7E0E090083120313A2009F28A00181
:10012800A101A728A728A728A001A101A728A728D7
:10013800A728A728A7282208A03A03199328023A33
:1001480003199828A7280800831603138614061590
:10015800990118151812831203139817831603139D
:100168000C1698168C1683120313181608008A1199
:10017800F4208A118B17F701781CC328C428C828D3
:100188008A11A8208A11C828080083120313A00026
:10019800CD280C1ED028D128CD28D2282008990097
:1001A800080083120313A0002008831603139B0082
:1001B8001C141A08DF280800E128831203138C1E78
:1001C800E628E728E128E8281A08EA280800F501BF
:1001D800F601F701A701A801A90183018A111328D3
:0601E800F601F50108001C
:02400E0022FF8F
:00000001FF
