:06000000020F1202006B6A
:03000B0002006B85
:0300130002006B7D
:03001B0002006B75
:0300230002006B6D
:03002B0002006B65
:0300330002006B5D
:03003B0002006B55
:0300430002006B4D
:03004B0002006B45
:0300530002006B3D
:03005B0002006B35
:0300630002006B2D
:01006B003262
:1000800002006B0002006B0002006B0002006B00BC
:1000900002006B0002006B0002006B0002006B00AC
:1000A00002006B0002006B0002006B0002006B009C
:0800B00002006B0002006B006E
:1001000002006B0002006B0002006B0002006B003B
:1001100002006B0002006B0002006B0002006B002B
:1001200002006B0002006B0002006B0002006B001B
:1001300002006B0002006B0002006B0002006B000B
:1001400002006B0002006B0002006B0002006B00FB
:1001500002006B0002006B0002006B0002006B00EB
:1001600002006B0002006B0002006B0002006B00DB
:1001700002006B0002006B0002006B0002006B00CB
:030F1800020F20A5
:030F3300020F1B8F
:050F1B0012059E80FE9E
:10018000C200E4F508F509F50AD201750B00750CFB
:100190000012078312078075CB6375CAC0758E0085
:1001A00075C804D2AFD2B0D2B190E60B7403F000A0
:1001B00090E6047480F00090E6047402F00090E68B
:1001C000047404F00090E6047406F00090E60474F1
:1001D00008F00090E604E4F00090E61074A0F0004F
:1001E00090E61174A0F00090E618E4F00090E6129A
:1001F00074A2F00090E619E4F00090E61374A0F009
:100200000090E60BE4F00090E61474A2F00090E693
:100210001AE4F00090E61A7411F00090E61574E00C
:10022000F00090E61BE4F00090E61B7409F00090EB
:10023000E626E4F00090E6277440F00090E6917422
:1002400080F00090E6957480F00090E6917480F064
:100250000090E6957480F00043A08090E6FBE054A7
:10026000FDF090E601E054F7F022AA82850C827539
:1002700083E0EAF0050C0509E4B50902050A22202D
:1002800000012212077F90E6A2E0FA30E1030203A8
:1002900017E509450A60687AC07BE78B9D7AC07BC9
:1002A000E77B008A9E90E67C7431F07460F0C37442
:1002B0003E9509E4950A50107A3EE50924C2F509F5
:1002C000E50A34FFF50A8007AA09E4F509F50A8A68
:1002D000037C007DE08D9A850B9B8A041AEC6010EC
:1002E00090E67BE090E67CF07C007DE08D9A80EAF1
:1002F000859B0B0090E68F74022BF0D2CF801830D4
:10030000CF1590E7C07431F090E7C17460F00090B1
:10031000E68F7402F0C2CFE5AA30E00122C3E509FE
:1003200094C1E50A940040012290E690E0FB7A0037
:1003300090E691E0FC7D00EA4CF50DEB4DF50E7C6E
:10034000007DF08D9A7C007DF08C9B7C007D00C34D
:10035000EC950DED950E400302042AE508700302AA
:1003600003E6E50DC39CFEE50E9DFFA8087900C3DA
:10037000E89EE99F5004880689078E00E508C39827
:10038000F508EE2CFCEF3DFD30012C8E008F01882E
:1003900002890318B8FF0119EA4B60B390E67BE0CD
:1003A000F582C004C005C000C0011207C9D001D049
:1003B00000D005D00480D88E028F038A068B071ADE
:1003C000BAFF011BEE4F608790E67BE0F582C0022A
:1003D000C003C004C00512080512026AD005D0048B
:1003E000D003D00280D590E67BE0FA23235401FBB2
:1003F000B401009201EA30E707743F5AF508802201
:1004000030010F8A82C004C0051207A5D005D004B0
:1004100080108A82C004C0051207BB12026AD00590
:10042000D0040CBC00010D02034F0090E6917480D3
:10043000F02290E6B8E0FA20E70C90E6B9E070020E
:10044000D2007582012290E6B9E0FABA9002801AD1
:10045000BA91028058BA92030204E3BA93030204E9
:10046000FDBA940302052D02056690E6BCE025E086
:10047000547FFA2400F582E43418F583E0FB90E71A
:1004800040F0EA042400F582E43418F583E090E7B4
:1004900041F090E6BEE0FABA0200500790E6BEE0F6
:1004A000FA80027A0290E68BEAF002058F90E6BCB1
:1004B000E0701290E6FBE054FDF090E7407402F02B
:1004C000120897801090E6FBE04402F090E7407439
:1004D00001F012089790E68AE4F090E68B7401F040
:1004E00002058F90E6BCE0700543A080800353A016
:1004F0007F90E68AE4F090E68BF002058F90E6BCF0
:10050000E0700F90E601E0FA54F7F090E740E4F075
:10051000800E90E601E0FA4408F090E7407401F0A4
:1005200090E68AE4F090E68B7401F080627A007BBA
:1005300000EA2436FCEB340FFD7E808C828D838EA6
:10054000F0120EF6FC6013EA2440F582EB34E7F576
:1005500083ECF00ABA00DA0B80D790E68AE4F090D8
:10056000E68BEAF0802990E7407436F090E741741A
:1005700083F090E68AE4F090E6BEE0FABA0200501A
:100580000790E6BEE0FA80027A0290E68BEAF07508
:10059000820122300203120A3B12027F80F5C2AFB1
:1005A0001201801205FA120E181209A2D2AF120817
:0405B0009702059316
:060F3600342E322E3000C3
:10E1000012011001FF000040C016AD06000401021C
:10E1100003010A061001FFFFFF400100090237005A
:10E1200002010080FA0904000002FFFFFF02070558
:10E1300081024000000705020240000009040100BE
:10E1400002FFFFFF02070506020002000705880222
:03E15000000200CA
:10E154001201100100000040C016AD0600040102C7
:10E1640003010A061001FFFFFF4001000902370006
:10E1740002010080FA0904000002FFFFFF02070504
:10E18400810240000007050202400000090401006A
:10E1940002FFFFFF02070506024000000705880290
:10E1A40040000004B0E1B6E1C0E1D8E1060300009C
:10E1B40009040A034500500046004C0018035500AA
:10E1C400530042002D0042006C0061007300740093
:10E1D400650072001203300030003000300030005F
:06E1E400300030003000A5
:1005B400AA82E50F54FEFBB50F0280298A048C053C
:1005C400E46210ED6211EB2400F582E43418F58343
:1005D400E0FB7C006210EC6211E51033C51133C5F9
:1005E4001192E0F510AB0F050FEB2400F582E43413
:1005F40018F583EAF022750F007510AA7511AA7513
:1006040082001205B47582001205B47A00C3EA644C
:100614008094865017EA2408F582E434E1F583E0F7
:10062400F582C0021205B4D0020A80E17A00C3EA5E
:10063400648094825017EA2423F582E434E1F5833C
:10064400E0F582C0021205B4D0020A80E175821C72
:100654001205B47582001205B47A00C3EA6480946A
:10066400825017EA2402F582E434E1F583E0F5824E
:10067400C0021205B4D0020A80E17486250FFAF58F
:1006840082C0021205B490E1B6E0F5821205B4D03E
:100694000290E1B6E02AFAF582C0021205B490E1B4
:1006A400C0E0F5821205B4D00290E1C0E02AF582E0
:1006B4001205B490E1D8E0F5821205B47A0090E115
:1006C400B6E0FBC3EA64808BF063F08095F05017CA
:1006D400EA24B6F582E434E1F583E0F582C002123F
:1006E40005B4D0020A80D77A0090E1C0E0FBC3EAE7
:1006F40064808BF063F08095F05017EA24C0F58293
:10070400E434E1F583E0F582C0021205B4D0020AB4
:1007140080D77A0090E1D8E0FBC3EA64808BF06371
:10072400F08095F05017EA24D8F582E434E1F5839B
:10073400E0F582C0021205B4D0020A80D77A00C361
:10074400EA648094845017EA240EF582E434E1F5D7
:1007540083E0F582C0021205B4D0020A80E17482FB
:10076400250F40087582001205B480F2AA10901873
:100774007EEAF0AA1190187FEAF022222222229027
:10078400E6007412F090E60174E0F075B11F75B6DE
:100794001F9001F4120EDDAAB474FD5A448DF5B411
:1007A40022E582FA1392A2EAA2E192A3EAA2E492D7
:1007B400A0EAA2E592A7221207A5A2A1E433FA7443
:1007C400024AF58222E5821392A0D2A213C2A29217
:1007D400A0D2A213C2A292A0D2A213C2A292A0D269
:1007E400A213C2A292A0D2A213C2A292A0D2A21316
:1007F400C2A292A0D2A213C2A292A0D2A2C2A22248
:1008040022E582A2A11392A0D2A2C2A2A2A1139213
:10081400A0D2A2C2A2A2A11392A0D2A2C2A2A2A1B9
:100824001392A0D2A2C2A2A2A11392A0D2A2C2A247
:10083400A2A11392A0D2A2C2A2A2A11392A0D2A258
:10084400C2A2A2A11392A0D2A2C2A2F582222278AD
:1008540080E84400600C7901901800E4F0A3D8FC0F
:10086400D9FAD083D082F6D8FDC082C083758200C5
:100874002290E6A0E04401F022AA8274805AC423A4
:10088400541FFB740F5A90E6834BF090E683E044C8
:1008940020F02290E680E0440AF09000FA120EDD87
:1008A40090E65D74FFF090E65F74FFF05391EF9073
:0708B400E680E054F7F0229A
:060F2D00E478FFF6D8FD98
:060F1200751200751300CA
:1008BB0090E680E0FA30E7267514007515E17516A1
:1008CB00127517E175181C7519E1751A70751BE116
:1008DB0090E6267402F00090E627E4F000227514EF
:1008EB00547515E17516667517E17518707519E174
:1008FB00751A1C751BE190E626E4F00090E6277450
:10090B0040F000225391EF75A100D20232C021C0FA
:10091B00E0C0F0C082C083C002C003C004C005C0E9
:10092B0006C007C000C001C0D075D0005391EF7551
:10093B00A1001208BBD0D0D001D000D007D006D078
:10094B0005D004D003D002D083D082D0F0D0E0D039
:10095B002132C021C0E0C0F0C082C083C002C003FE
:10096B00C004C005C006C007C000C001C0D075D010
:10097B00005391EF75A1001208BBD0D0D001D0006D
:10098B00D007D006D005D004D003D002D083D082BC
:10099B00D0F0D0E0D021321208BB751C0F751D09A9
:1009AB00758200120D6D751C18751D09758210125C
:1009BB000D6D751C5D751D09758214120D6D90E61C
:1009CB005C7431F022AA8253027F7408B502005086
:1009DB000475820022BA010475820122530201E4DC
:1009EB00BA000104F58222AA82BA010C90E6A1E0BA
:1009FB00FB7C008B828C8322BA810C90E6A2E0FBFD
:100A0B007C008B828C832253027FEA700C90E6A0D1
:100A1B00E0FB7C008B828C832290E6A3E0FB7C00C6
:100A2B00EAC313FA7D00EA2BFBED3C8B82F58322A4
:100A3B00C20290E6B8E0FA530260BA00028028BA0C
:100A4B002002800DBA4002800EBA60028003020DB4
:100A5B0000120875020D00120432E5826003020DCC
:100A6B0000120875020D0090E6B8E0FA530280BA46
:100A7B0080028003020BFB90E6B9E0FABA00030296
:100A8B000B74BA06028035BA08028008BA0A0280D3
:100A9B0017020BF590E740E512F090E68AE4F09030
:100AAB00E68B7401F0020D0090E740E513F090E641
:100ABB008AE4F090E68B7401F0020D0090E6BBE047
:100ACB00FABA01028017BA02028038BA03028059BF
:100ADB00BA0602801BBA0702803C020B6EAA14AB4B
:100AEB001590E6B3EBF07B0090E6B4EAF0020D0054
:100AFB00AA16AB1790E6B3EBF07B0090E6B4EAF0E6
:100B0B00020D00AA18AB1990E6B3EBF07B0090E650
:100B1B00B4EAF0020D00AA1AAB1B90E6B3EBF07B24
:100B2B000090E6B4EAF0020D0090E6BAE0FA90E12C
:100B3B00A7E0FBEAB503004006120875020D009012
:100B4B00E6BAE075F002A424A8F58274E135F0F55D
:100B5B0083E0FAA3E090E6B3F07B0090E6B4EAF012
:100B6B00020D00120875020D0090E6B8E0FA530270
:100B7B001FBA0002800ABA0102801BBA0266802CDF
:100B8B0090E740E4F090E741F090E68AF090E68B36
:100B9B007402F0020D0090E740E4F090E741F09012
:100BAB00E68AF090E68B7402F0020D0090E6BCE052
:100BBB00F5821209D0E582602590E6BCE0F5821241
:100BCB0009F2E0FA53020190E740EAF090E741E4C2
:100BDB00F090E68AF090E68B7402F0020D0012089A
:100BEB0075020D00120875020D00120875020D003A
:100BFB0090E6B9E0FA740BB502005003020CFDEA63
:100C0B002A2A900C1173020CFD020C4A020CC5022D
:100C1B000CA6020CFD020CFD020CFD020CFD020CDD
:100C2B00FD020C35020CFD020C4153B1BF90E6BA2C
:100C3B00E0F512020D0090E6BAE0F513020D0090FC
:100C4B00E6B8E0FA53021FBA00028005BA024780E9
:100C5B000A90E6BAE0120875020D0090E6BAE07051
:100C6B003090E6BCE0F5821209D0E582602390E675
:100C7B00BCE0F5821209F2AA82AB83E0FC5304FEBE
:100C8B008A828B83ECF090E6BCE0F58212087D80C3
:100C9B0064120875805F120875805A90E6B8E0FA06
:100CAB0053021FBA004F90E6BAE0FABA0102800570
:100CBB00BA02028040120875803B90E6BAE0FA70E7
:100CCB002C90E6BCE0F5821209D0E582601A90E622
:100CDB00BCE0F5821209F2AA82AB83E0FC4304016B
:100CEB008A828B83ECF0800D1208758008120875D0
:100CFB00800312087590E6A0E04480F022AA82BA25
:100D0B00030040077463B50200500122740F5AFBB5
:100D1B00BB03028007740F5AFBBB0B45A2AF9203B8
:100D2B00C2AFEA2400F582E43400F5837402F07B51
:100D3B000074012AFCE43BFDEC2400F582ED340049
:100D4B00F583E51DFCF074022AFAE43BFBEA240070
:100D5B00F582EB3400F583AA1C7B00EAF0A2039228
:100D6B00AF22AA82747CB50200500122EA540360C0
:100D7B000122A2AF9204C2AFEA2400F582E434014F
:100D8B00F5837402F07B0074012AFCE43BFDEC2438
:100D9B0000F582ED3401F583E51DF074022AFAE4C7
:100DAB003BFBEA2400F582EB3401F583AA1CEAF045
:100DBB00A20492AF22AA82BA8000400774B4B50293
:100DCB0000500122EA5403600122A2AF9205C2AF88
:100DDB00EA2480F582E43400F5837402F07B00741E
:100DEB00012AFCE43BFDEC2480F582ED3400F58315
:100DFB00E51DF074022AFAE43BFBEA2480F582EB52
:100E0B003400F583AA1CEAF0A20592AF22C2E8C215
:100E1B00EA751C00751D01758243120D08751C8047
:100E2B00751D00758253120D080090E650E4F0001A
:100E3B0090E652E4F00090E654E4F00090E656E4BD
:100E4B00F00090E65174FFF00090E65374FFF00051
:100E5B0090E65574FFF00090E65774FFF00090E6B3
:100E6B0058E4F090E65974FFF090E65AE4F090E6FF
:100E7B005B74FFF090E65CE4F090E65D74FFF0903D
:100E8B00E65EE4F090E65F74FFF00090E660E4F05D
:100E9B000090E66174FFF090E662E4F090E6637414
:100EAB00FFF090E665E4F090E668740BF05391EF79
:100EBB005391BFD2E8D2EA222222AA82C002120E9A
:100ECB00C3D002DAF72290FB50A3E582458370F979
:100EDB002222AA82AB83C002C003120ED1D003D050
:0B0EEB00021ABAFF011BEA4B70EC2258
:0D0F2000758121120853E5826003020F1B4A
:100EF60020F71430F6148883A88220F507E6A88325
:0C0F060075830022E280F7E49322E022D1
:00000001FF
